:020000040800F2
:1000000000040020B9010008BB010008BB01000882
:10001000BB010008BB010008BB010008BB010008D0
:10002000BB010008BB010008BB010008C1C80008F3
:10003000BB010008BB010008BB01000805DB00088C
:10004000BB010008BB010008BB010008BB010008A0
:10005000BB010008BB01000879330008B933000870
:10006000F93300083D34000881340008BB01000862
:10007000BB010008BB010008D5E10008BB01000876
:10008000C5340008BB010008BB010008BB01000823
:10009000BB010008BB010008BB010008BB01000850
:1000A000BB010008BB010008C1DD0008D5DD000868
:1000B000BB010008BB010008BB010008BB01000830
:1000C00025DB000865350008BB010008193600086B
:1000D000BB010008BB010008BB010008BB01000810
:1000E00072B6264880F30888254880F30988254899
:1000F00025490860022080F31488BFF36F8F0CF04D
:100100000BF90BF0E5FE4FF0553020491B4A9142A8
:100110003CBF41F8040BFAE71D49194A91423CBF24
:1001200041F8040BFAE71B491B4A1C4B9A423EBF9D
:1001300051F8040B42F8040BF8E700201849194A5B
:1001400091423CBF41F8040BFAE70CF0E9F80CF0DF
:10015000E4F8154C154DAC4203DA54F8041B8847FB
:10016000F9E706F015FF124C124DAC4203DA54F8D1
:10017000041B8847F9E70CF0D1B800000004002008
:10018000000C00200000000808ED00E00000002046
:1001900000040020D8090108000C002034100020C1
:1001A000381000207C370020E0000008E000000844
:1001B000E0000008E000000892E700F000F8FEE729
:1001C0002DE9F04FC1F80CD0C3689D46BDE8F08F13
:1001D000002383F311882846A04700200CF0A4FADE
:1001E000FEE70CF0D7F900DFFEE7000053B94AB98B
:1001F000002908BF00281CBF4FF0FF314FF0FF302F
:1002000000F074B9ADF1080C6DE904CE00F006F809
:10021000DDF804E0DDE9022304B070472DE9F04782
:100220008C460446089E002B40F086808A42154684
:1002300048D9B2FA82F24AB1C2F1200701FA02F3B8
:1002400020FA07F7954047EA030C94404FEA154E11
:10025000BCFBFEF71FFA85F80EFB17C307FB08F976
:10026000210C41EA0343994509D9EB1807F1FF3105
:1002700080F0E180994540F2DE80023F2B44A3EB01
:100280000903B3FBFEF00EFB103300FB08F1A4B230
:1002900044EA0344A14209D92C1900F1FF3380F04C
:1002A000C880A14240F2C58002382C4440EA074091
:1002B0000027641A1EB10023D440C6E90043394622
:1002C000BDE8F087002A54D0B2FA82F2002A40F04A
:1002D000B4800127491B4FEA15481FFA85F9B1FB85
:1002E000F8FE08FB1E1109FB0EF04FEA144C4CEA15
:1002F0000143984207D9EB180EF1FF3102D2984220
:1003000000F2EB808E461B1AB3FBF8F008FB1033AB
:1003100009FB00F9A4B244EA0344A14507D92C190A
:1003200000F1FF3302D2A14500F2DB801846A4EBB6
:10033000090440EA0E40BDE78B4208D9002E75D073
:100340000027C6E9000138463946BDE8F087B3FA10
:1003500083F77FB98B4202D3824200F2BC80841AB9
:1003600061EB030301209C46002EA8D0C6E9004C97
:10037000A5E7FFDEC7F12005BB4022FA05FC4CEAE9
:10038000030C21FA05F44FEA1C4EB4FBFEF91FFAE8
:100390008CF80EFB194420FA05F3B94009FB08FA62
:1003A00019430B0C43EA0444A24502FA07F200FA8F
:1003B00007F30BD91CEB040409F1FF3080F08980AE
:1003C000A24540F28680A9F102096444A4EB0A0424
:1003D000B4FBFEF00EFB104400FB08FA89B241EAC0
:1003E0000444A24508D91CEB040400F1FF316CD28F
:1003F000A2456AD90238644440EA0940A0FB028958
:10040000A4EB0A044C454146CE4655D352D0002EAB
:100410006AD05A1A64EB0E0404FA05F522FA07F3BF
:10042000FC401D43C6E90054002748E737463046E4
:1004300045E718463AE70F4621E79540C2F1200309
:1004400021FA03F04FEA1548B0FBF8F71FFA85F9D7
:1004500008FB170E24FA03FC914007FB09FA4CEA4B
:100460000101080C40EA0E40824504FA02F407D963
:10047000281807F1FF332AD2824528D9023F2844A1
:10048000A0EB0A00B0FBF8FC08FB1C000CFB09F316
:1004900089B241EA00418B4208D969180CF1FF305A
:1004A00011D28B420FD9ACF1020C2944C91A4CEA83
:1004B000074714E74345AAD2B8EB020169EB0C02E7
:1004C00001389646A3E78446F0E7084694E71F46BE
:1004D000D6E781467AE7384646E7AEF1020E2B446E
:1004E00011E702382C4422E73746E8E6704700BFA0
:1004F00008B5062000F0C2FA01200DF04BF900BF4C
:10050000024B0146186800F055B900BF000C0020EE
:10051000024B0146186800F0F9B800BF000C00203B
:10052000032A70B412D940EA0105AD0704460B4610
:1005300020D11946204653F8045B54F8046BAE42B0
:1005400018D1043A032A20461946F2D8541E72B133
:1005500003780A789A4208BF241806D00CE010F8F5
:10056000013F11F8012F934206D1A042F7D100209C
:1005700070BC7047541EEBE7981A70BC704700BF00
:10058000844641EA000313F0030349D1403A23D3E0
:100590000B6803604B6843608B688360CB68C36003
:1005A0000B6903614B6943618B698361CB69C361EB
:1005B0000B6A03624B6A43628B6A8362CB6AC362D3
:1005C0000B6B03634B6B43638B6B8363CB6BC363BB
:1005D00040304031403ADBD230320BD30B680360FD
:1005E0004B6843608B688360CB68C3601030103108
:1005F000103AF3D20C3205D351F8043B40F8043BD7
:10060000043AF9D2043208D0D2071CBF11F8013BDA
:1006100000F8013B01D30B8803806046704700BFA0
:10062000082A13D38B07B1D010F00303AED0C3F167
:100630000403D21ADB071CBF11F8013B00F8013B91
:10064000A4D331F8023B20F8023B9FE7043AD9D308
:10065000013A11F8013B00F8013BF9D20B78037025
:100660004B7843708B78837060467047F0B4860790
:1006700046D0541E002A3CD0CAB2034602E014F110
:10068000FF3436D303F8012B9D07F8D1032C29D969
:10069000CDB245EA05250F2C45EA054533D9A4F12D
:1006A0001006360903F1200707EB061703F11002C5
:1006B00042E9045542E902551032BA42F8D1721C9F
:1006C00014F00C0F03EB021204F00F0613D0331FCB
:1006D00023F003030433134442F8045B9342FBD139
:1006E00006F003042CB1C9B21C4403F8011B9C4260
:1006F000FBD1F0BC704734461346002CF3D1F8E729
:1007000014460346C2E71A462646E0E700293AD0D7
:1007100038B551F8043C0C1F002BB8BFE41805464F
:1007200000F05AFA224B1A682AB1A2420DD9216868
:100730006018824221D0626028461C60BDE83840C3
:1007400000F04CBAA34203D81A465368002BF9D1E3
:1007500011685018A04217D022D82168601883422F
:1007600003BFD3E900030918C4E9001363605460B0
:100770002846BDE8384000F031BAD2E90002014411
:10078000C4E90012D8E7704720680144501883423A
:100790001160EDD1D3E900030144C2E90013E7E79A
:1007A0000C2328462B60BDE8384000F017BA00BF84
:1007B00038100020F8B5CD1C25F0030508350C2DA8
:1007C00038BF0C25002D064633DBA94231D82A4F0D
:1007D00000F002FA3A6852B113685B1B04D43FE0A0
:1007E00023685B1B29D522465468002CF8D1796810
:1007F00000293BD0294630460CF0B0FF431C28D0DE
:10080000C41C24F00304A04205D0211A30460CF089
:10081000A5FF01301DD02560304600F0DFF904F15E
:100820000B0020F00700231DC21A01D01B1AA35091
:10083000F8BD0C2200203260F8BD0B2B05D8A24277
:10084000636811D05360E7E7144623601C442560B9
:10085000E2E70C233046336000F0C0F90020F8BD19
:100860000B2BF1D8144653683B60D5E730460CF0AB
:1008700075FF7860BEE700BF3810002038B5124B16
:1008800005461C68A06B18B10023C0E9045338BDAD
:100890001820FFF735FEA06378B101220023C0E9DC
:1008A00004230A4B0B24836000230949094A8481ED
:1008B000C0E90012C0E9045338BD0246064B42218C
:1008C000064800F041F900BF000C0020ECDE0500F6
:1008D0000E33CDAB34126DE608090108200901087A
:1008E00038B51A4B1C68A26B92B114691849536948
:1008F00001FB04F1174800FB0313A4FB0045611C36
:100900001D4445F1000323F00040C2E9041338BD43
:100910001820FFF7F5FD0246A06388B101240025E9
:100920000B21C0E904450C4B0948136003460B4DED
:100930000B4C91810B49C2E90154C2E9041338BD43
:10094000094B4E21094800F0FFF800BF000C0020C1
:100950002DF451582D7F954C0E33CDAB34126DE6EE
:10096000ECDE05002E7F954C0809010820090108DE
:1009700010B580210446FFF71DFF606440B10022DE
:10098000031F7C3043F8042F8342FBD1002010BDAD
:100990004FF0FF3010BD00BF436C0BB1002070471B
:1009A000E6E700BF1F2970B5054608D8436C164618
:1009B0000C464BB153F8240043F8246070BD162256
:1009C0004FF0FF302A6070BDFFF7D2FF08B96B6CA3
:1009D000F0E74FF0FF3070BD1F2938B5054620D82D
:1009E000426C0C466AB152F8213053B1012B16D03B
:1009F000591C10D00025204642F82450984728461C
:100A000038BD284600F070F8224601462846BDE869
:100A1000384000F055B8162301202B6038BD002067
:100A200038BD16234FF0FF302B6038BD1F2921D869
:100A300038B5436C05460C4683B153F8242003EBCC
:100A400084034AB1511C10D0012A0CD00025204645
:100A50001D609047284638BD012038BDFFF788FF4C
:100A600028B96B6CE9E7032038BD022038BD4FF090
:100A7000FF3038BD4FF0FF30704700BF024B0146DA
:100A80001868FFF7A9BF00BF000C0020024B0A4600
:100A900001461868FFF786BF000C0020034B18685A
:100AA000436C0BB10020704762E700BF000C0020D0
:100AB000024B01461868FFF7B9BF00BF000C0020C9
:100AC00070B50D460023074C0646114628462360A4
:100AD0000CF068FE431C00D070BD2368002BFBD0D7
:100AE000336070BD783700200CF064BE20F0030145
:100AF00010F00300C0F1000051F8043B00F1040CB9
:100B00004FEACC0C6FF000021CBF22FA0CF2134328
:100B10004FF0010C4CEA0C2C4CEA0C4CA3EB0C02F1
:100B200022EA030212EACC1204BF51F8043B04305B
:100B3000F4D0C2F1000102EA0102B2FA82F2C2F17B
:100B40001F0200EBD200704700B50A4C0546206832
:100B500085B01C46C06852B1074BCDE90132009107
:100B60002B462246054900F023F8FFF7C1FC044B51
:100B70001A46F2E7000C0020540901086409010834
:100B80006009010808B513460022FFF7DDFF00BF2A
:100B90000CB410B582B004AC54F8042B2346019475
:100BA00000F060F802B0BDE8104002B0704700BF2E
:100BB0000EB430B582B005AC54F8042B054D014697
:100BC00023462868019400F04DF802B0BDE830409B
:100BD00003B07047000C0020704700BF704700BF93
:100BE0009368013B002B93600FDA10B49469A34221
:100BF00008DB0A2906D01368581C106019700846D3
:100C000010BC704710BC00F07BBB1368581C106010
:100C100019700846704700BF9BB1F8B513440F46E2
:100C200006465D1E541E01E0AC4208D03A4614F858
:100C3000011F3046FFF7D4FF431CF5D1F8BD00205B
:100C4000F8BD0020704700BF936810B5144613B973
:100C50005360184610BD00F013FE0023C4E90133B1
:100C600010BD00BF2DE9F04F9FB08B4690461C464B
:100C7000039018B18369002B00F0B980A34B9B450A
:100C800000F0BB80A24B9B4500F0C980A14B9B4567
:100C900004BF039BD3F80CB0BBF80C30180740F12D
:100CA000B480DBF81030002B00F0AF80302300213F
:100CB00020228DF8323098F8003005940B918DF891
:100CC0003120954E0127002B00F08980252B00F064
:100CD0001781454603E0252B00F0A58025466B785B
:100CE0006C1C002BF7D1B4EB080A78D0424653466F
:100CF00059460398FFF790FF013070D00B9B6A783C
:100D000053440B93002A6AD000234FF0FF32013482
:100D10000693CDE908338DF85B301C93079206E00B
:100D20002C46069B801B07FA00F0184306902546C8
:100D3000052215F8011B304600F0E6FFAA46002800
:100D4000EED1069BD90644BF20228DF85B201A07FE
:100D500048BF2B22217848BF8DF85B202A2967D114
:100D6000059A1168043200290592C0F29E8009910B
:100D70006178A51C2E2974D0684C0322204600F00F
:100D8000C3FF002800F087804022069B001B02FA68
:100D900000F00343069305F101082B78062219465B
:100DA0005F488DF8303000F0AFFF002800F08380FE
:100DB0005C4B002B72D005AB00935A465A4B06A9E8
:100DC0000398AFF300808146B9F1FF3F07D00B9B3A
:100DD0004B440B9398F80030002B7FF477AFBBF8AF
:100DE0000C305B0618D40B981FB0BDE8F08F00F0F4
:100DF00027FD464B9B457FF445AF039BD3F804B0DA
:100E0000BBF80C3018073FF54CAF5946039800F07B
:100E1000D7FA00283FF44AAF4FF0FF30E4E7039BD6
:100E2000D3F808B038E7B4EB080A3FF46DAF5DE7DC
:100E3000A1F13002092A88BFA2469BD8099B01E094
:100E40002C460135297803EB830302EB4303A1F120
:100E50003002092AAA46F3D92E2904F10205099382
:100E60008AD19AF801102A292FD1059B0AF1020094
:100E70001A680433002A079205939AF802100AF1BF
:100E8000030538DB254C82460322204600F03CFF58
:100E900000287FF479AFA84655467EE7059B0733C7
:100EA00023F007030833059391E7494243F0020317
:100EB000099106935CE705AB00935A461A4B06A9C5
:100EC000039800F0D3F881467EE70023A1F13002B9
:100ED000092A079301D915E05546697803EB830386
:100EE00002EB4303A1F13002092A05F1010AF3D90B
:100EF0000235079340E74FF0FF33824607933BE705
:100F0000444601E7AA46013536E700BFD8F6000897
:100F1000B8F6000898F60008940901089C09010831
:100F2000A009010800000000190C000810B4044CCE
:100F300013460A460146206810BCFFF793BE00BF67
:100F4000000C00202DE9F0470C460969A568914680
:100F50008D42B8BF0D46156094F8431006461F46F3
:100F6000DDF8208011B16A1CC9F8002023689906B9
:100F70005CD5D9F800200232C9F80020236813F0AC
:100F8000060F19461DD1E1688A1A002AD8BF1946F2
:100F900017DD002504F1190A05E0E368D9F80020FF
:100FA0009B1AAB420CDD0123524639463046C047FE
:100FB000013005F10105F0D14FF0FF30BDE8F087B9
:100FC000216894F84330003318BF01238A060AD5FC
:100FD0003021E21882F8431094F845105A1C22443C
:100FE00082F84310023304F1430239463046C047C9
:100FF0000130E1D02368A26803F00603042B2169C5
:101000001DD08A4226DD4FF00009521A9144002576
:101010001A3401E04D451DDA012322463946304697
:10102000C047013005F10105F4D1C5E713F0060F03
:1010300013D094F84330003318BF0123D3E7D9F815
:101040000000E3688A42A3EB000323EAE379DCDCD7
:10105000002BDCDC0020BDE8F087E168D9F8002037
:101060008A1A002AD8BF194693DCAAE72DE9F04373
:101070000C46097E85B06E2906461746984604F14F
:10108000430C0C986DD039D9732900F0F48044D901
:10109000752900F00281782940F00F8178232268B9
:1010A000DFF854E284F845300168150651F8043B36
:1010B000016040F1A180D10744BF42F020022260CC
:1010C000002B00F093801022002184F84310606808
:1010D0000028A060C0F2C680216821F004012160D0
:1010E000002B40F0A280002840F0BE806546082A10
:1010F00000F0AB80ACEB0503236141E0632900F015
:10110000E3801AD8002938D0582940F0D68084F8D6
:1011100045102268DFF8E4E1C6E76F2900F0BD80E2
:10112000702940F0CA8078232268DFF8CCE142F0D1
:101130002002226084F84530B6E7642902D069298C
:1011400040F0BB8022680368110603F1040557D5FF
:10115000196805600B46002959DB0A22DFF89CE17B
:10116000B5E7036822681D1D6169056015061B68E7
:1011700002D4500600F1BB8019600023654623614C
:10118000CDF800803B4603AA21463046FFF7DAFE41
:10119000013020D02A46236939463046C047013005
:1011A00019D0226803989207E36819D51A1A002A01
:1011B00016DD002504F1190904E0E36803981A1A02
:1011C000AA420DDD01234A4639463046C047013068
:1011D00005F10105F1D14FF0FF3005B0BDE8F08316
:1011E0009842B8BF184605B0BDE8F08321681022C8
:1011F00021F02001216067E7500648BF9BB25AE703
:101200005106A5D5B3F9003005601946A3E72D2096
:1012100061685B42002984F84300A16002DB22F090
:10122000040222600A22DFF8D4E0654600E00B46A3
:10123000B3FBF2F102FB11301EF80000934205F8F7
:10124000010DF4D2082A7FF455AF2368DB077FF540
:1012500051AF626823699A423FF74CAF3023013D9A
:101260002B7047E7002BE0D19EF8003004F14205D7
:1012700084F842303BE703686268191D01601D680D
:101280000021284600F040FD002832D0401B60605D
:101290002061002384F8433072E72268036812F06B
:1012A000800F03F104051AD01B6805606F290CBF7D
:1012B00008220A22DFF844E006E7012384F84210FE
:1012C000236104F14205E4E70122036804F14205C9
:1012D000191D1B68016084F842302261D9E712F0C1
:1012E000400F0DBF1B6805601B880560DEE7198095
:1012F00043E76068CCE700BFBC090108A809010802
:10130000F8B50D461446064608B1836943B3254B2C
:101310009C422AD0244B9C4229D0244B9C4208BF9B
:10132000F468A269A389A2601A0722D5236903B3CE
:1013300022686169D31AEDB299422F4629DD013343
:10134000A168501C0139A1602060157062699A4241
:1013500016D0A389DB0701D50A2D11D03846F8BD78
:1013600000F06EFA0F4B9C42D4D17468D9E7B46890
:10137000D7E72146304600F023F838B92369D7E78C
:101380002146304600F032F90028E7D04FF0FF3711
:10139000E4E72146304600F029F90028F6D1012380
:1013A0002268CDE7D8F60008B8F6000898F60008DD
:1013B000024B0A4601461868FFF7A2BF000C002046
:1013C0003B4B70B51D6806460C460DB1AB69DBB1F1
:1013D000384B9C421ED0384B9C424AD0374B9C42E3
:1013E00008BFEC68B4F90C2093B2190718D520692E
:1013F00008B313F001022CD000226369A2605B42A3
:10140000A36160B3002070BD284600F019FA294B93
:101410009C42E0D16C68B4F90C2093B21907E6D471
:10142000DD063CD5580726D4206942F00803A38185
:101430009BB20028DDD103F42072B2F5007FD8D032
:101440003046214600F016FCA389206913F0010202
:10145000D2D1990758BF6269A2600028D2D1B4F9ED
:101460000C301A06CFD543F04003A3814FF0FF3074
:1014700070BDAC68B6E7616B51B104F144039942A9
:1014800004D03046FFF742F9B4F90C20002363631F
:101490000023206922F02402C4E90003C5E70923E0
:1014A00042F0400233604FF0FF30A28170BD00BFB8
:1014B000000C0020D8F60008B8F6000898F60008DE
:1014C0002DE9F0418F890C463A07804641D44B689C
:1014D000002B59DDE66A002E53D0002317F480520A
:1014E000D8F80050216AC8F8003051D10123404695
:1014F000B047431C5FD0A789E66A216A7F0705D5FC
:101500006268636B801A0BB1236CC01A0246002319
:101510004046B047461C45D1D8F80030B4F90C20FD
:10152000002B55D01D2B01D0162B5AD10022236938
:10153000C4E90032616BC8F8005011B304F14403F0
:10154000994202D04046FFF7E1F800206063BDE811
:10155000F0810E69AEB10D680E60B90714BF0023AB
:101560006369AD1BA3600AE02B463246A76A216A75
:101570004046B8470028A5EB000506440ADD002DCB
:10158000F2DC0020BDE8F0810B6C002BA2DCF8E758
:10159000606DB3E7A3894FF0FF3043F04003A381B0
:1015A000BDE8F081002322696360A3892260DA0428
:1015B000C0D56065BEE7D8F80030002B9BD01D2B4E
:1015C0000CD0162B0AD0A38943F04003A381D9E79E
:1015D0002169C4E90013D304ACD5EAE7C8F8005088
:1015E000CFE742F04002A281CCE700BF0B6923B3F2
:1015F00010B5044682B008B18369BBB1104B994263
:1016000012D0104B994216D00F4B994208BFE16897
:10161000B1F90C302BB1204602B0BDE81040FFF705
:101620004FBF002002B010BD6168F1E7019100F0EA
:1016300007F90199E2E7A168EAE70020704700BFD7
:10164000D8F60008B8F6000898F6000820B1054B57
:1016500001461868FFF7CABF034B0449186800F039
:10166000B3BA00BF000C002094F60008ED15000886
:1016700000207047014900F0A7BA00BFED1500082F
:101680000020704770B568254A1E05FB02F50E461E
:1016900005F17401FFF78EF8044640B100210C30CB
:1016A000666005F168022160A060FEF7DFFF20465A
:1016B00070BD00BF1E4B70B51D680646AB6943B3D5
:1016C0004835D5E90134013B05D51EE0013B5A1CE4
:1016D00004F1680419D0B4F90C20002AF6D10025D1
:1016E000144B6566C4E90055A560C4E90455A561BD
:1016F0002946E360082204F15C00FEF7B7FFC4E965
:101700000D55C4E91255204670BD2C682CB12546F4
:10171000D7E7284600F010F8D2E704213046FFF75B
:10172000B1FF044628600028F1D10C233360EAE7BA
:1017300094F600080100FFFF2DE9F84F0023334A1B
:10174000C0E9123312680365904208BF0123304993
:1017500008BF836181620546FFF7ACFF68602846D9
:10176000FFF7A8FFA86028460024FFF7A3FF042383
:101770006E68E8602146F3607466C6E90044B460B0
:10178000C6E90444B46106F15C000822FEF76EFF6E
:10179000DFF888B0AF68DFF888A0DFF88890DFF85E
:1017A00088801C4BC6E9086BC6E90AA9C6F83080D8
:1017B0002146FB6008227C66C7E90044BC60C7E99B
:1017C0000444BC6107F15C00FEF750FFEE68124B69
:1017D000C7E9087BC7E90AA9C7F830802146F3604A
:1017E0007466C6E90044B460C6E90444B46106F115
:1017F0005C000822FEF73AFF0123C6E9086BC6E940
:101800000AA9C6F83080AB61BDE8F88F94F60008ED
:10181000751600080900010012000200AD1E000844
:10182000D51E0008151F0008351F0008024B03498C
:10183000186800F0C9B900BF94F60008ED1500085B
:10184000836903B978E77047704700BF704700BFEE
:10185000704700BF704700BF024B0349186800F093
:101860008FB900BF000C002071160008024B03491D
:10187000186800F085B900BF000C00208116000830
:101880009368002B00F0FC802DE9F04FB1F90C308B
:101890000C469BB2190783B0824690462BD522692D
:1018A0004AB313F00202D8F8006033D000273D4657
:1018B000D4F828B0216ADFF8C492C5B14D452B4653
:1018C0003A4628BF4B465046D847002840F3CE80C2
:1018D000D8F8083007441B1A2D1AC8F80830002B16
:1018E00000F0B380D4F828B0216A002DE6D1D6E903
:1018F00000750836E1E721465046FFF761FD0028F4
:1019000040F03781B4F90C30D8F800609BB213F086
:101910000202CBD113F0010940F0B4804D46A76814
:101920002068002D55D09A0540F1C080AF42BB46DB
:1019300000F2EE8013F4906F2FD0D4E9041707EB78
:101940004707A0EB010B07EBD777681C7F105844C3
:10195000B8423A4684BF07463A465B0540F1F080FC
:1019600011465046FEF726FF002800F0FC805A463C
:1019700021690190FEF704FEA289019B22F4906286
:1019800042F08002A281A7EB0B0203EB0B00676120
:10199000AB462F4623612060A2605A46494600F0BC
:1019A000F9F92368A2685B44AB460025D71BA76002
:1019B0002360D8F80870D944A7EB0B07C8F8087063
:1019C000002F42D0B4F90C30A7689BB22068002DDC
:1019D000A9D1D6E900950836A3E70BF1080353F81F
:1019E000047C9B4653F8086C0833002FF7D03A4626
:1019F0000A21304600F088F9002854D00130A0EBCD
:101A000006094B4620682169BB4228BF3B468842F5
:101A1000626903D9A5681544AB421ADC9A4200F307
:101A200081801346A56A3246216A5046A847051EA2
:101A30001CDDB9EB05096ED00120D8F808302E4422
:101A40005B1B7F1BC8F8083013BB002003B0BDE848
:101A5000F08F31462A4600F09DF9236821462B4439
:101A600023605046FFF7C2FD0028E2D0B4F90C30E5
:101A70004FF0FF3043F04003A38103B0BDE8F08F87
:101A80000020704733469146104617464E469B4607
:101A9000002FA2D00028B4D13A460A21304600F0E7
:101AA00033F90028AAD17B1C9946ABE7236983420E
:101AB00017D36269AA4214D82F4BA76A9D4294BFDC
:101AC0002B466FF0004393FBF2F3216A02FB03F312
:101AD00050464A46B847B0F1000BC7DDA5EB0B05F1
:101AE00067E7AF4228BF2F4649463A4600F052F911
:101AF000A3682268DB1B3A44BB46A3602260002B2C
:101B0000ECD121465046FFF771FD0028E6D0ADE745
:101B10002F46AB4641E721465046FFF767FD0028B8
:101B20008BD0A3E71A4631461D46019300F032F9E7
:101B3000A1682268019BC91A1344A160236078E759
:101B4000504600F08DF9034600287FF41CAF216950
:101B50005046FEF7DBFD0C22B4F90C30CAF8002029
:101B600023F0800384E70C22B4F90C30CAF800207B
:101B70007EE74FF0FF3069E7FEFFFF7F00FCFF7F4D
:101B80002DE9F04110F148071AD088460026D7E920
:101B90000154013D0ED4A389013D012B06D9B4F9AE
:101BA0000E30013302D02046C04706436B1C04F1BF
:101BB0006804F0D13F68002FE9D13046BDE8F081DC
:101BC0003E463046BDE8F0812DE9F84310F1480665
:101BD0001ED0884607464FF00009D6E90154013D62
:101BE00010D4A389013D012B08D9B4F90E3001337B
:101BF00004D021463846C04749EA00096B1C04F16D
:101C00006804EED13668002EE7D14846BDE8F88377
:101C1000B1464846BDE8F88370B50C46B1F90E10E0
:101C200096B0002916461D4613DB6A460BF0A3FD4D
:101C300000280EDB019A4FF4806302F47042A2F593
:101C40000052B2FA82F2002052092A60336016B0C4
:101C500070BD0022A3892A601B0604D54023002002
:101C6000336016B070BD4FF480630020336016B04F
:101C700070BD00BF8A890B46920706D5012103F18A
:101C8000470259611A601A61704770B582B001ABA2
:101C90006A460C460646FFF7BFFF009905463046E8
:101CA000FEF788FDB4F90C3070B1164A0099B262A3
:101CB000019A43F08003A3812060C4E904018AB93A
:101CC0002B43A38102B070BD9A05FBD4012123F000
:101CD000030304F1470243F00203A3816161226020
:101CE0002261EFE73046B4F90E100BF050FD10B949
:101CF000B4F90C30E4E7A38923F0030343F00103B4
:101D00001BB2DDE775160008830770B4CDB23DD075
:101D1000541E0AB30378AB421FD0431C05E014F1F4
:101D2000FF3419D30278AA4217D013F0030F1846D4
:101D300003F10103F3D1032C11D84CB30378AB4268
:101D40000BD00444431C02E00278AA4205D09C4216
:101D5000184603F10103F7D1002070BC704702461A
:101D60000E02B6B22E4346EA06461368104673408A
:101D7000A3F1013121EA030313F0803F02F10402D1
:101D8000DCD1043C032C1046EFD8D6E71446D2E74A
:101D90002046E2E78842F0B40DD98B1883420AD975
:101DA000841832B1224613F8014D994202F8014DD0
:101DB000F9D1F0BC70470F2A0ED80346541E002AF2
:101DC000F7D001340C44013B11F8012BA14203F878
:101DD000012FF9D1F0BC704740EA01039B073AD1CB
:101DE000A2F110073F0901F1200606EB071601F1E9
:101DF000100300F1100453F8105C103344F8105C29
:101E000053F81C5C103444F81C5C53F8185C44F81C
:101E1000185C53F8145CB34244F8145CEBD17B1C9F
:101E20001B0112F00C0F194402F00F05034415D0EA
:101E30000E46043DAD0803EB850C1C1F56F8047BD1
:101E400044F8047F6445F9D10135AD002B442944A1
:101E500002F00302B2E7541E0346B2E72A46ADE79A
:101E600009B3F8B51446CAB106460D4600F066F847
:101E7000A04202D32F463846F8BD21463046FEF731
:101E800099FC07460028F6D022462946FEF778FB43
:101E900030462946FEF73AFC3846F8BD2746FEF79D
:101EA00035FC3846F8BD1146FEF784BC10B50C462B
:101EB000B1F90E100BF047FC002803DB636D0344FF
:101EC000636510BDA38923F48053A38110BD00BFB7
:101ED000002070472DE9F041B1F90C409846E30528
:101EE0000D461746B1F90E10064609D424F4805465
:101EF000AC8143463A463046BDE8F0410BF02ABC7F
:101F0000022300220BF024FCB5F90C40B5F90E10A9
:101F1000ECE700BF10B50C46B1F90E100BF018FC41
:101F2000A389421C0EBF23F4805343F480536065A1
:101F3000A38110BDB1F90E100BF00EBC51F8043C9A
:101F4000181F002BBCBF0B58C01870470D4B1A7CD4
:101F5000824212D093F82C20824210D101211C22FF
:101F60004A439918886858B19B58FF281CBF4343BF
:101F70005B0001334B60012070470021EFE7002038
:101F8000704700BF640E002030B50A4C257C8542A6
:101F90000CD094F82C5085420AD101201C2505FB59
:101FA0000040417602768376012030BD0020F5E7BF
:101FB0000020FAE7640E0020094B1A7C82420AD006
:101FC00093F82C20824208D101221C2000FB02330E
:101FD0000120996070470022F7E70020704700BF9A
:101FE000640E0020094B1A7C82420AD093F82C2000
:101FF000824208D101221C2000FB023301205960DB
:1020000070470022F7E70020704700BF640E0020F1
:1020100010B50B4B1C7C84420ED093F82C408442AC
:102020000CD101241C2060431C18195000230120EE
:10203000A260E360637410BD0024F3E70020FAE7B8
:10204000640E002070B500252E462B4C6368002BD3
:102050004ED0E06800BB637CB3FA83F35B09637422
:1020600009F0F0FBD4E900239342E0602AD26660D5
:102070006674E66063690BB1207C9847207CFF287A
:1020800023D100221146104607F01EFA1C340DB170
:10209000284670BD0125D9E709F01AFC236898424B
:1020A000D9D26368002BE5D0204602F04DFC002811
:1020B000ECD0637C207CB3B1FF280CD1A27E217EC2
:1020C000607EE1E79B1A6360EBE74228DED80023DD
:1020D0001A46194604E04228D8D8A37E227E617EA3
:1020E00006F056FBD2E7FF28CBD04228CED8EFE748
:1020F0006374E360CAE700BF640E002007B503788D
:102100008DF8003043788DF8013083788DF80230F7
:1021100003798DF80330C37868468DF804300DF0EC
:1021200021F903B05DF804FB08B5074B5A78032A80
:1021300007D8586809F0CCFBC72894BF00200120BD
:1021400008BD0020FCE700BFA40C0020704708B5C4
:10215000FFF7FCFF00BF00BF00BF00BF00BF00BF14
:1021600000BF00BF00BF00BF00BF00BF00BF00BF77
:1021700000BF00BF00BF00BF08BD08B501F08CFA6A
:1021800008BD000008B5054C20780CF0E7FB20786E
:10219000FFF7F3FF05200AF0CCFAF5E7B83300208B
:1021A00010B5084C236803F07142074B13432360BA
:1021B00009F048FB054B18602068BDE8104004F0AA
:1021C00036BA00BFB83300200001010E44100020D1
:1021D00010B5064C0122204602210BF05CFC0223C4
:1021E000A361BDE8104001F0FDBA00BF000400404B
:1021F00001207047124B10B51C789CB9114B1B780D
:10220000042B0FD104F000F904F014F904F0C6F81F
:1022100004F040F9204609F0B9F92046BDE8104025
:1022200009F0D0B90DF0A2F848B10CF08DFB0028F0
:10223000FBD1BDE8104044F620600AF07ABA10BD28
:10224000B83300202437002038B500230D460B702A
:10225000074C30B109F0F6FA002320602B70002003
:1022600038BD206809F034FB3228F3D8F7E700BF07
:1022700054100020084B9A78012A07D0022A09D06E
:10228000064B1868B0FA80F040097047587801286A
:10229000F6D170470120FCE7A40C0020B811002003
:1022A00008B5054B9B78013B012B02D9FFF7E2FFF4
:1022B00008BD0120FCE700BFA40C002008B509F010
:1022C000C1FA014B986008BDA40C002038B5154C2C
:1022D000054623782070637009F0B4FA032D60601E
:1022E0001ED1012000F0FCF838B90F4B1A7882B1EA
:1022F00059780246084600F01DF800220B4B1A7070
:1023000000F032FEFFF7DAFFBDE8384053200CF052
:10231000A5BF074909780129EFD111465878EAE7A6
:1023200038BD00BFA40C0020B8330020501000209E
:10233000243700202DE9F0410C46154607460028B9
:1023400041D0B1FA81F35B099BB15A4E5A4A3378B6
:10235000002C3CD00221012B91610AD030460BF0B9
:1023600079FB30460AF042FF5448554B836009F030
:10237000E3F8A74201D0FFF73DFF524E3378013B0F
:10238000012B04D80320FFF7A1FF0023B3704E4EAA
:102390003378A34200D11DB100224C4B9A619A833D
:1023A000347024B1631E042B747098BFB47030680D
:1023B00004F03DF93378062B76D8DFE803F0731983
:1023C00036404A545E000B1C18BF0123BCE74FF493
:1023D0000031042B9161CCD03D4BDFF8E0801C70C4
:1023E0003C4B3046C8F8083009F0DEFC4046BEE7FA
:1023F000312075B10CF032FF52200CF02FFF01207C
:102400000CF038FF4EF2804143F22D400CF08CFF6F
:1024100051200CF023FFFFF751FF2A462146384692
:1024200001F01CFE0120BDE8F0813220002DF0D02B
:102430000CF014FF52200CF011FF0220E0E73320D3
:10244000002DE6D00CF00AFF52200CF007FF03200D
:10245000D6E73420002DDCD00CF000FF52200CF029
:10246000FDFE0420CCE73520002DD2D00CF0F6FE86
:1024700052200CF0F3FE0520C2E73020002DC8D01A
:102480000CF0ECFE14480CF01BFF14480CF032FF6B
:102490004EF2804143F22D400CF046FF52200CF0EA
:1024A000DDFEB5E71120B4E711200CF0D7FEFFF7F1
:1024B00077FEB0E72437002000040040141000200D
:1024C000FD200008A40C0020B8330020640C00207C
:1024D000042400206DBE000885F700088FF700086F
:1024E000002313B50DF107018DF80730FFF7ACFE9F
:1024F000044690B19DF80730013B032B0DD8DFE86F
:1025000003F002060F1200221146094B02E00022DE
:10251000074B99781878FFF70DFF204602B010BDE1
:1025200000220621F1E7024B00225978F2E700BFB2
:10253000B833002013B5124C20460CF097F9012354
:10254000A37704F071F80F4C206008B9FFF728FE5C
:10255000E37843F00103E37009F074F90A4BFF22BA
:10256000186000234FF4A87100930848084B0AF044
:10257000ADF8FFF7ECFD0120FFF7B2FF02B010BD90
:10258000640C0020B83300204410002058100020B4
:102590008521000848B1074A1378013B012B07D871
:1025A00093782BB90320FFF791BE0122024B1A70DA
:1025B000704700BFA40C002050100020014B187879
:1025C000704700BFA40C0020014B9870704700BFFB
:1025D000A40C0020014B9878704700BFA40C002089
:1025E000014BD870704700BFA40C00200122014BA2
:1025F0001A70704750100020F8B51A4C1A4DE27846
:10260000A968C2F3420219B9FFF758FE0020F8BDCD
:10261000164B53F8227023782BB9154B1B78042BDB
:1026200001D1FFF74BFE134E327872B100233370A5
:10263000E37843F00103E370237873B101F0F2FE15
:102640000028E3D101F052F8E1E7002FDED0A868BE
:1026500009F03EF9B842E9D2D8E7054B1B78042BC4
:10266000ECD1D1E7B8330020A40C002034F70008E7
:1026700024370020501000200C4B10B55A78194612
:10268000012A03D0022A08D0002005E09C78012C02
:1026900003D101F099F8204610BD486809F018F9F7
:1026A000C728F1D9FFF7E6FDF6E700BFA40C00202C
:1026B00008B5074BDB780BB1022B04D10220FFF7E2
:1026C00005FE002008BD0320FFF700FE0120F9E70A
:1026D000A40C002038B50A4D0024EB78033B012BF5
:1026E00008D80320FFF7F2FD2046AC7001F008F88F
:1026F000012038BD0220FFF7E9FD2046F9E700BFC1
:10270000A40C002010B50A4CE378032B0AD3042B49
:1027100008D80320FFF7DAFD0020A07001F010F8C0
:10272000012010BD0220FFF7D1FD0020F9E700BF16
:10273000A40C002070B5874C874D2068B8B109F013
:10274000C7F8B0F5FA6F12D30026552026600CF0BA
:1027500085FD57200CF082FD70200CF07FFD28785D
:1027600032460146B0FA80F04009FFF7E3FD2B78CE
:1027700023B17A4B93F82020794B1A702368DBB988
:10278000784E306809F0A4F840F6B733984213D970
:102790002B788BB10CF0D8F870B9704CA37F5BB17B
:1027A00009F050F8306053200CF058FD94F82130B7
:1027B00013B970200CF052FD6B4C0020FFF790FE17
:1027C0002378032B1ED8DFE803F002284FA4E36828
:1027D00033B1984720B10120FFF778FD0023A370A3
:1027E000236933B1984720B10120FFF76FFD022321
:1027F000A370636933B1984720B10120FFF766FDEC
:102800000123A3700CF024FC584B1B78002B00F024
:102810009F80BDE8704002F020BEA369002BF1D07C
:1028200098470028EED002F0D3F8514B187007F00B
:1028300019FC2A784F4B1A700022484B9A772A6865
:102840004D4B134063B94D4C2378012B08D0022225
:102850004B4B20469A610BF0FDF820460AF0C6FC6F
:102860000220FFF733FDCDE7E369002BCAD098477C
:102870000028C7D00022434B1A704FF080434FF41A
:1028800000129A612A683C4B1340B3F1807F0FD04D
:10289000A37843B3022B0BD86378022B08D0FFF741
:1028A000A9FC11200CF0DAFC0CF04EF80028FBD14A
:1028B00000F006FF0023E3702E4B2A781B789A4223
:1028C00008D12A682C4B1340B3F1807F02D0A07846
:1028D00000F028FCA378012B18D0A3B1022B91D1D2
:1028E000FFF7F8FE8EE71D4B5B7E002BE0D1112039
:1028F0000CF0B4FC0CF028F80028FBD147F2305063
:1029000009F017FFD4E7FFF7D3FE7BE7FFF7FAFEE6
:1029100078E7236A002B3FF475AF984700283FF40F
:1029200071AF01220D4B9A77114B1B782BB14FF0F1
:10293000804320229A6107F083FB002400F014FBFF
:10294000104B1C7000F0B0FEFFF7B8FC204688E783
:1029500070BD00BF44100020B8330020640C00207C
:10296000042400204C100020A40C0020491000205A
:102970004010002048100020FF00000124370020F4
:1029800000040040501000200120704708B5FFF7F8
:10299000FBFF08BD37B504460D46FFF78FFC2946FF
:1029A0002046FFF7F3FF60B1074B1A784AB1074B97
:1029B00020461B78D9090091C3F30013A9780CF0C5
:1029C0006BFB03B030BD00BFB8330020C433002020
:1029D00000B50B4B8FB093F821300A4A322101A881
:1029E00004F0C5FD01A808F0F3F80BF0A9FF08F00A
:1029F000EFF8054808F0ECF80FB05DF804FB00BFF5
:102A0000640C002054F7000863F700082B4B13B543
:102A10001A7804464AB12A4B01211B78DB0900933E
:102A200000230CF039FB02B010BD0028FBD0031FBF
:102A3000DBB2A02B12D8234B0146186808F0FCFD2E
:102A400020B1204603F0A2FC03F024FD204603F051
:102A500095FC02B0BDE8104003F01CBD00F120035E
:102A6000DBB2072B07D800F007040120A040C0B25A
:102A700003F0BAFCEDE700F15B03DBB2022B06D8F2
:102A8000114AD05C02B0BDE8104008F07FBD00F1F3
:102A90005803DBB21A2B07D80C4A32F8130002B0E5
:102AA000BDE8104008F08EBD3334E4B2122CBAD821
:102AB000012102B0BDE8104002F0CEBDB8330020C5
:102AC000C4330020C00E0020F8F60008FCF6000811
:102AD000244B13B51A7804464AB1234B1B78DB0903
:102AE0000093002319460CF0D7FA02B010BD00285D
:102AF000FBD0031FDBB2A02B06D803F047FC02B0CB
:102B0000BDE8104003F0C6BC00F12003DBB2072B88
:102B100007D800F007040120A040C0B203F06CFC0D
:102B2000EDE700F15B03DBB2022B05D8104602B0E3
:102B3000BDE8104008F02ABD00F15803DBB21A2BA3
:102B400005D8104602B0BDE8104008F03BBD333454
:102B5000E4B2122CC9D8114602B0BDE8104002F010
:102B60007BBD00BFB8330020C43300202DE9F34102
:102B70000546C0B1114E3278C2B10127DFF840805E
:102B8000284602F0E1FC044698F80030E030DB090A
:102B9000009332780023012180B207FA04F40CF08C
:102BA0007BFAA543ECD102B0BDE8F08103F01CFC38
:102BB00002B0BDE8F04103F06DBC00BFB8330020A7
:102BC000C43300202DE9F3410546C0B1114E3278DF
:102BD000C2B10127DFF84080284602F0B5FC98F822
:102BE00000300446DB0900930023E03032781946B8
:102BF00080B207FA04F40CF04FFAA543ECD102B00E
:102C0000BDE8F08103F0F8FB02B0BDE8F04103F04D
:102C100041BC00BFB8330020C43300202DE9F3418C
:102C20000546C0B1114E3278C2B10127DFF84080AD
:102C3000284602F089FC044698F80030E030DB09B1
:102C4000009332780023012180B207FA04F40CF0DB
:102C500023FAA543ECD102B0BDE8F08103F0DAFB22
:102C600002B0BDE8F04103F015BC00BFB83300204E
:102C7000C43300202DE9F3410546C0B1114E32782E
:102C8000C2B10127DFF84080284602F05DFC98F8C9
:102C900000300446DB0900930023E0303278194607
:102CA00080B207FA04F40CF0F7F9A543ECD102B0B6
:102CB000BDE8F08103F0B6FB02B0BDE8F04103F0DF
:102CC000E9BB00BFB8330020C43300202DE9F04138
:102CD00004460E4601F0A8FAE8B92378013B142B0C
:102CE0004ED8DFE803F00B1B486268727575757A81
:102CF000CA80848A939C9FA2ABB4BD0000236370FA
:102D00000C23A370614B31461B782046002B40F00A
:102D1000B98009F0B1F80120BDE8F0816378013B8A
:102D2000032B2DD8DFE803F0020C0F2108F08AFDF9
:102D3000030EA370030CE370030A23716071E1E7D3
:102D400007F017FCF4E72546A77804F11C08042FC8
:102D5000D8D8F8B203F0E8FF030AEB702871023507
:102D6000454507F10107F2D1CCE70023A370E370DA
:102D700023716371C6E76378022B04D0052B10D052
:102D8000FF232370BEE7E378A07840EA032023798D
:102D900040EA0340637940EA036000BA07F0ECFBC5
:102DA000B0E7A07807F012FCACE7E278A178607891
:102DB00008F008F8C0E722796379A17843EA022392
:102DC0006078E27808F014F89CE708F061F899E779
:102DD0003146204607F075FC94E7002007F0ACFB75
:102DE00007F0D5FB8EE708F0E5F860708AE708F099
:102DF000E3F8030A6370A07084E76078A378221D6B
:102E0000E17843EA002008F0DAF87BE76078A378FD
:102E1000221DE17843EA002008F0E6F872E708F0A6
:102E2000F5F86FE707F0C2FFDFE76078A378221DAF
:102E3000E17843EA002008F075F863E76078A3784A
:102E4000221DE17843EA002008F088F85AE7E2788A
:102E5000A178003218BF0122607807F0DEFF6BE72F
:102E6000E27821796379003243EA012318BF012215
:102E7000A178607807F0F0FF44E70123044A63700B
:102E800013703FE70CF0CAFA45E700BFB8330020E3
:102E90004910002010B54378044613B1FF23237076
:102EA00011E08378013B032BF8D8DFE803F0021A26
:102EB00028410378072B07D0082BEFD1294BDB786B
:102EC000C3F34203C37010BDC1780729FBD8BDE826
:102ED0001040244BDA7861F34302DA70186803F08B
:102EE000A6BB0378072B05D0082BD7D101F0ABFA8E
:102EF000E070E8E7C078BDE8104001F075BB0378EA
:102F0000072B0AD0082BC9D142790179C07801F08A
:102F10009CFAA071000AE071D5E7C2798379017942
:102F200043EA0223BDE810404279C07801F0A3BA19
:102F30000378072B0BD0082BB0D12379C078A21DC2
:102F4000617943EA0020BDE8104001F0A9BA237975
:102F5000C078A21D617943EA0020BDE8104001F06D
:102F6000BABA00BFB833002008B508F06BFC014BBB
:102F7000186008BDA811002038B5124B1D7875B92E
:102F8000114B124C1B78052B07D0022B05D008F0F3
:102F900059FC0F4B20601D7038BD206818B9BDE882
:102FA0003840FFF7E1BF08F093FC41F657339842F1
:102FB000F2D9FFF7D9FF0122054B1A70BDE838405E
:102FC000FFF714BBB833002024370020A8110020DD
:102FD000AC1100202DE9F0411A4C804625781DB136
:102FE00001242046BDE8F081FFF7E8FA0138012806
:102FF00005D80320FFF76AF92846FFF7E5FA277896
:10300000002FEDD1104D2B78052BE9D1B5F84C30C0
:103010009B0702D50D4E34782CB9B8F1FF0F94BF41
:1030200000240124DDE7FFF7C9FA0328D8D8377058
:10303000FFF79AFF28460AF085F9284601F034F98F
:10304000CFE700BFB833002024370020AC110020A8
:10305000704700001A4B70B59C6C0F2644F4C06496
:103060009C649B6C012301F003048B4021F003015D
:1030700001F1804101F5A0518D68A400C0F38320C7
:10308000A04006FA04F425EA040528438860D843E2
:103090000C4912F0010F8C6814BF1C4304408C6073
:1030A00012F0020FCA6814BF1A430240CA60054AF0
:1030B000536111680B43136053680340536070BD44
:1030C000000C0140001800400F281FD8DFE800F076
:1030D000080C0F121518181818181B1B1B1B1B1B8C
:1030E000062108460AF069BB06210720FAE70621F7
:1030F0000820F7E706210920F4E706210A20F1E776
:1031000006211020EEE706212120EBE77047012081
:10311000704708B5FFF7FBFF18B1BDE80840FFF79F
:1031200059BA08BD2DE9F0473023054683F31188CD
:10313000FFF7EFFF00264FF00108744FDFF8F4911E
:1031400057F8040B95B1012D4DD148454BD120F0D6
:103150000F0A00F00F0008FA00F42146052250463D
:1031600024040AF098FCCAF8184001E0441CEED18F
:1031700001360F2EE4D105240127654EDFF8B89102
:1031800056F8040B002D3AD0012D40F0B28048458E
:1031900040F0AF8000F00F01202207FA01F120F08B
:1031A0000F000AF078FC00BF00BF00BF00BF00BFE7
:1031B00000BF00BF00BF00BF00BF00BF00BF00BF17
:1031C00000BF00BF00BF00BF00BF56F8040C0322C1
:1031D00000F00F08414620F00F00FFF73BFF40468C
:1031E000FFF772FF0DE0411CC2D000F00F0120225A
:1031F00008FA01F120F00F000AF04DFCB8E7421C7C
:10320000C8D1013CBCD1434BDA6C22F00802DA642D
:10321000DB6C84F3118872B601203F4A136823F0F7
:10322000010313603D4B3E4A5A610022A30003F1A3
:10323000604303F56143D3F80011D5B2012D94BF6B
:10324000002101F0010109B1C3F880010132202AF7
:10325000F1D10134082CE8D1324C636843F000739B
:103260006360314B1A6802F009021A601A6842F46E
:103270006C3242F004021A6040F2B3321A622B4BF5
:1032800043F001039847236943F00403236130BFEF
:10329000274B43F00103984723691F4A23F0040397
:1032A000236113681B4C43F001031360E36943F08F
:1032B0008003E361A36C43F40073A36408F008FE89
:1032C00003F066FDE36C43F00803E364E36CA36C76
:1032D00043F48053A364A36CE36C43F01003E364F2
:1032E000E36CFFF7B5FE002383F3118862B6BDE8F7
:1032F000F087431C85D000F00F01402207FA01F14E
:1033000020F00F000AF0C7FB7BE700BFE4F70008DE
:103310007CF80008000C014010E000E000180040BC
:10332000FFFF070000ED00E00000014054F8000836
:1033300020F80008080000400D08004001207047F8
:1033400001207047012303FA01F2024210B50C4636
:103350000FD0022903D00D290CD0184600E004201C
:10336000FFF73EF92046FFF7E9FF10B12046FFF7CF
:10337000E7FF10BD0520F3E708B50D4B5A69D207EA
:1033800007D51A68002122F001021A600120FFF718
:10339000D9FF4022074BC3F88020BFF34F8FBFF304
:1033A0006F8F0122024B5A61BDE8084009F0B6BA9E
:1033B0000018004000E100E008B50D4B586910F01E
:1033C000020006D01A68012122F002021A60FFF7FB
:1033D000B9FF8022074BC3F88020BFF34F8FBFF3A4
:1033E0006F8F0222024B5A61BDE8084009F096BA7D
:1033F0000018004000E100E008B50E4B586910F0DD
:10340000040006D01A68022122F004021A60FFF7B5
:1034100099FF4FF48072084BC3F88020BFF34F8FA1
:10342000BFF36F8F0422034B5A61BDE8084009F0D7
:1034300075BA00BF0018004000E100E008B50E4B6F
:10344000586910F0080006D01A68032122F008021B
:103450001A60FFF777FF4FF40072084BC3F8802023
:10346000BFF34F8FBFF36F8F0822034B5A61BDE844
:10347000084009F053BA00BF0018004000E100E026
:1034800008B50E4B586910F0100006D01A680421D8
:1034900022F010021A60FFF755FF4FF48062084BCC
:1034A000C3F88020BFF34F8FBFF36F8F1022034B01
:1034B0005A61BDE8084009F031BA00BF0018004069
:1034C00000E100E038B5254B5C69A20604F478758C
:1034D00007D51A68052122F020021A602846FFF756
:1034E00031FF600608D51D4A06211368284623F0DF
:1034F00040031360FFF726FF210608D5174A07216E
:103500001368284623F080031360FFF71BFFE205D2
:1035100008D5124A08211368284623F480731360E3
:10352000FFF710FFA30508D50C4A092113682846A8
:1035300023F400731360FFF705FF4FF48032084B4C
:10354000C3F88020BFF34F8FBFF36F8F4FF47872B3
:10355000024B5A61BDE8384009F0E0B9001800405C
:1035600000E100E038B52A4B5C69620504F47C4553
:1035700007D51A680A2122F480621A602846FFF7EC
:10358000E1FE230508D5224A0B211368284623F4BF
:1035900000631360FFF7D6FEE00408D51C4A0C2137
:1035A0001368284623F480531360FFF7CBFEA10471
:1035B00008D5174A0D211368284623F400531360D9
:1035C000FFF7C0FE620408D5114A0E211368284691
:1035D00023F480431360FFF7B5FE230408D50C4A9B
:1035E0000F211368284623F400431360FFF7AAFE57
:1035F0000222084BC3F88420BFF34F8FBFF36F8FB5
:103600004FF47C42024B5A61BDE8384009F086B95C
:103610000018004000E100E008B50E4B586910F4B6
:10362000802006D01A68122122F480221A60FFF747
:1036300089FE0822084BC3F88420BFF34F8FBFF3E5
:103640006F8F4FF48022034B5A61BDE8084009F0A8
:1036500065B900BF0018004000E100E010B5074C5C
:1036600023784BB901F0BEF901F0A4FF07F06AFF1F
:1036700001F0A1FF01232370012010BDAE11002035
:1036800010B5044C23781BB101F022FA00232370FB
:10369000012010BDAE110020024B1B780BB10BF0C6
:1036A000A7BD7047B111002008B5044B1B780BB9BA
:1036B000FFF7D4FF01F0A0F908BD00BFAE11002054
:1036C00008B5064B1B780BB1FFF7DAFF0023044A5D
:1036D0001370044A136001F005FA08BDAE11002012
:1036E000BC110020C01100200120704708B5FFF771
:1036F000FBFF08BD014B1878704700BFAF110020D9
:10370000014B1870704700BFAF110020014B1878B3
:10371000704700BFB0110020084B10B50446187068
:1037200058B9FEF74BFF022807D80320FEF7CEFD5D
:103730002046BDE81040FEF747BF10BDB011002085
:10374000FFF7EABF024B187880F00100FFF7E4BFF3
:10375000B01100200020FFF7DFBFFFF7F3BF00002C
:10376000024B187880F00100704700BFB0110020B4
:10377000084B1A78084B1B784BB982F00102A0F570
:10378000A443203B1F2B8CBF104601207047002212
:10379000F5E700BFB0110020AF110020002319464B
:1037A000074A937213609375D36082F82230936155
:1037B000044A01330B2B917242F80C1BF9D170476C
:1037C0009C0E0020C80C002008B503F053FBFFF747
:1037D000E5FF0022014B1A6008BD00BFB8110020B0
:1037E0000120704708B5FFF739FFFEF7A3FE01F08F
:1037F00001F948B1012220214FF080400AF04BF935
:103800004FF0804320229A6108BD000000230D4A3A
:1038100010B513700C4A4FF0804413700B4A1360BC
:1038200006F038FC01280AD006F02CFC4FF40013F7
:10383000A36101F0F5FCBDE8104002F09ABF20231F
:10384000F6E700BFAD110020B2110020B411002036
:1038500008B502F053FF04F069FF02F0DEFE054BED
:10386000188001F0E1F818B1BDE80840FFF7CEBFBD
:1038700008BD00BFC433002037B504460D4601F033
:10388000E5F8002800F0BD80002D00F0BA8047F672
:1038900004639C4200F0858029D847F601639C426E
:1038A0005BD00AD847F603439C4200F0A780B4F5EA
:1038B000FC4F3CD0284603B030BD47F602639C4223
:1038C0005DD047F603639C42F4D100230DF107015C
:1038D00001208DF80730FEF7B7FC9DF80730042B68
:1038E00002D013F0FD0FE5D10122042130E047F6AC
:1038F00012639C427BD00BD847F605639C4263D091
:1039000047F611639C42D5D10020FFF705FFD1E7B0
:1039100047F613639C426ED047F643639C42C9D17D
:103920000122394B1A700022384B1A60C2E700237B
:103930000DF1070101208DF80730FEF785FC9DF899
:103940000730042B02D013F0FD0FB3D10122114632
:103950002F4B1878FEF7EEFCACE700230DF10701C2
:1039600001208DF80730FEF76FFC9DF80730042B1F
:1039700002D013F0FD0F9DD101220221E8E70023C0
:103980000DF1070101208DF80730FEF75DFC9DF871
:103990000730042B02D013F0FD0F8BD1012203213D
:1039A000D6E700230DF1070101208DF80730FEF75F
:1039B0004BFC9DF80730042B03D013F0FD0F7FF470
:1039C00079AF01220521C3E700230DF10701012092
:1039D0008DF80730FEF738FC9DF80730DA1E012A13
:1039E00002D9002B7FF466AF01220621B0E7012245
:1039F000084B1A705EE7FFF7A5FE5BE7FFF728FFAD
:103A000058E7054656E700BFB2110020B411002068
:103A1000B8330020B011002070B5FEF78BFE0025F2
:103A200001261C4C206858B1A37A4BB907F050FF0F
:103A30006368984204D3A67201212089FFF71CFF16
:103A40000135032D04F10C04ECD100250126124CA4
:103A5000206858B1A37A4BB907F03AFF63689842DF
:103A600004D3A67201212089FFF706FF01350B2D33
:103A700004F10C04ECD1094B1A783AB100221A7007
:103A80000AF062FF0028FBD1FFF7E2FE00F0B6FF6C
:103A900070BD00BF9C0E0020C80C0020C411002087
:103AA00008B5064B1B780BB9FFF7D8FD4FF08043E4
:103AB00020229A61BDE8084007F090BEAE110020B8
:103AC0002DE9F7430D46BD4A89780446136801B3D2
:103AD000032B00D80133BA4E1360FEF7EFFB308999
:103AE00084421AD0B08A84421AD0308C84420CD1DD
:103AF0004FF0020995F802800C27B8F1000F12D0A0
:103B000007F0A0FE07FB09F7F051AE4B00279846DF
:103B100035E0002BDFD0013BDDE74FF00009E9E79E
:103B20004FF00109E6E707FB09F706EB070999F8EB
:103B30000A300BB9F351E8E74146FFF79DFE89F8DB
:103B40000A8046F807800028DFD100209CE07E43F1
:103B500008EB0607BB7A13B948F806301DE0494662
:103B60002046FFF789FE87F80A9048F8069000285B
:103B7000EBD012E001370B2F03F10C030DD01A89A3
:103B80009442F7D195F802900C26B9F1000FDED0DF
:103B900007F058FE7E4348F8060029462046FFF706
:103BA000E7FD0028D1D02946204600F0A9FF0028D3
:103BB000CBD047F604639C4200F0C8802CD8B4F503
:103BC000FC4F6ED009D847F620039C4200F01B81C1
:103BD00047F603439C42B8D02EE047F602639C426E
:103BE000AB7800F098807BD9002BAED0764C227851
:103BF000042AAAD000230DF1070101208DF8073017
:103C0000FEF722FB9DF80730042B02D013F0FD0FC6
:103C10009BD1002204215FE047F640639C4225D0FF
:103C20001CD847F606639C4200F0D480C0F0AA80FE
:103C300047F607639C4231D02946204600F0F4FC49
:103C4000002882D029462046FFF7C4F900283FF417
:103C50007CAF29462046FEF79DFE15E047F64263FD
:103C60009C4214D009D347F64363B3E7AB78002BEB
:103C70003FF46BAFFEF7ACFE67E7A878534B10B18B
:103C800001221A7061E7187003B0BDE8F083AB78C9
:103C9000002B3FF45AAFFEF7A9FC56E7AA784C4B2D
:103CA000EFE7AB78002B3FF450AF474C2278012A66
:103CB0003FF44BAF00230DF1070101208DF80730D1
:103CC000FEF7C2FA9DF80730042B03D013F0FD0F66
:103CD0007FF43BAF002201212078FEF72BFB34E775
:103CE000002B3FF432AF384C2278022A3FF42DAF3C
:103CF00000230DF1070101208DF80730FEF7A4FA2B
:103D00009DF80730042B03D013F0FD0F7FF41DAF97
:103D100000220221E0E7002B3FF417AF2A4C227863
:103D2000032A3FF412AF00230DF1070101208DF8A3
:103D30000730FEF789FA9DF80730042B03D013F003
:103D4000FD0F7FF402AF00220321C5E7AB78002B03
:103D50003FF4FBAE1C4C2278052A3FF4F6AE00235C
:103D60000DF1070101208DF80730FEF76DFA9DF87F
:103D70000730042B03D013F0FD0F7FF4E6AE0022D2
:103D80000521A9E7AB78002B3FF4DFAE0E4C22787B
:103D9000062A3FF4DAAE00230DF1070101208DF869
:103DA0000730FEF751FA9DF80730DA1E012A02D9D2
:103DB000002B7FF4CAAE002206218DE7B811002047
:103DC0009C0E0020C80C0020B8330020B111002048
:103DD000AD110020AB78002B3FF4B7AE114C227828
:103DE000002A3FF4B2AE00230DF1070101208DF847
:103DF0000730FEF729FA9DF80730012B3FF6A5AEF4
:103E00000022114668E7AB78002B3FF415AF06F0AF
:103E100041F94FF0804318B14FF400129A610BE75B
:103E20002022FBE7B8330020014B1878704700BF11
:103E3000BC11002001207047F8B505460C46654EC0
:103E4000654F21462846FFF7F5FF50B1062C08D8EC
:103E5000DFE804F0040862ACACB9B90000225D4BA5
:103E60001A60F8BD3268A2BBA5F11F03092B0DD85B
:103E7000DFE803F005181D0C270C0C0C0C220022A7
:103E8000FF2311461F20FEF77FF801224FF4FA713D
:103E90002846FEF7BDF82846FEF758F807F0D2FC92
:103EA0003060DEE70022FF2311462020EBE70022EE
:103EB000FF2311462120E6E70023FF221946282090
:103EC000E1E7002323201A461946FEF75DF8FF229A
:103ED000DCE7104607F0FCFC41F26F73984203D90F
:103EE00005243E4B1C70ACE73D4B1B787BB9232D62
:103EF0000DD13C4A1278042A53D10322374C19467B
:103F0000227028461A46FEF73FF8247899E77A7E11
:103F1000002A45D00324E4E7306898BBA5F11F03CD
:103F2000092B9ED801A252F823F000BF553F00088C
:103F3000673F0008713F0008633E0008633E0008C9
:103F4000633E0008633E0008633E0008633E0008CD
:103F50007B3F00080022FF2311461F20FEF714F8C4
:103F60000122C82194E70022FF2311462020F5E713
:103F70000022FF2311462120F0E70023FF221946EB
:103F80002820EBE707F0A4FC41F26F73984201D9B7
:103F90000624A6E77B7E0BB10424A2E7104B1B7816
:103FA0006BB12846BDE8F840FDF7D0BFFF224FF4C3
:103FB000FA612846FEF72CF82846FDF7C7FF0022D5
:103FC000064B1A704DE70022044B1A70FEF70EFBE9
:103FD000E7E700BFC0110020640C0020BC110020E6
:103FE000B8330020243700200120704770B5064602
:103FF0000D461F200021FDF7F5FF10B900242046D3
:1040000070BD00212020FDF7EDFF0028F6D0002133
:104010002120FDF7E7FF0028F0D000212820FDF740
:10402000E1FF0028EAD000212320FDF7DBFF002874
:10403000E4D029463046FFF7D7FF04460028DDD0FC
:104040000022044B29461D70034B30461A60FFF7CF
:10405000F3FED4E7BC110020C011002070B50D465E
:104060001446FEF7C5F8064680B155B3174B5B7E84
:104070002BBB013D052D09D8DFE805F0030C120824
:1040800008182CB102211F20FFF7B0FF304670BD89
:104090000121F8E714B102212020F5E70121FBE717
:1040A00014B102212120EFE70121FBE714B1022125
:1040B0002820E9E70121FBE702212320E4E71E464F
:1040C000E4E7002CF8D10121F7E700BF640C0020E1
:1040D00008B50C4B1B789BB9FEF770FA80B90A4BF8
:1040E0001A783AB1094A527E52B95978BDE8084067
:1040F000FEF720B9064B1B78042B01D01146F5E7DB
:1041000008BD00BFBC110020B8330020640C0020A3
:1041100024370020704700002DE9FF473D4E074639
:104120008846FFF7F7FFFFF7D3FF3478002C32D033
:10413000394D2B6813B907F085FB2860286807F014
:10414000C7FB41F28733984205D933780133337086
:1041500007F078FB28603378013B032B17D8DFE8A2
:1041600003F0020C10140022B420114605F0ACF943
:104170000024204604B0BDE8F0870022B421104698
:10418000F4E70021B4220846F0E7B422F6E7002461
:1041900034702C60EDE7214B1B788BB941463846D3
:1041A000FFF71EFB0028E3D04146384600F070FCC4
:1041B00004460028DCD041463846FDF743FFD8E7E7
:1041C000DFF85CA0DFF85C9001AE0A2551462A4674
:1041D0003046FCF7D5F999F81F30E2B2B3FBF5F59C
:1041E0009542A05D12D9312B03D90023B422194680
:1041F00006E01D2B4FF000038CBFB4221A46B421F9
:10420000013404F0C5FA0A2CDFD1C7E700231A46AF
:10421000EDE700BFB2110020B4110020AD11002065
:1042200078F50008640C002070B505460E46FEF7D0
:1042300045F8FEF7C3F910B10320FEF747F82B78D5
:104240000A2B0ED10124084B31461C70074B28461F
:104250001B781BB907F010FE204670BD0BF0DEF88E
:10426000FAE70020F9E700BFC4110020B8330020AE
:10427000012810B5044611D002280AD1FEF79EF994
:104280000138012805D80320FEF720F80020FEF7AA
:104290009BF92046BDE8104007F07ABA014B187030
:1042A000F7E700BF10100020014808F042BA00BF35
:1042B000A08601000D4BF0B51B688BB11E22490092
:1042C00002FB00100A4901220E461D5A31F8027BFA
:1042D000D4B2AF4205D104F0070236F812201A52C8
:1042E000F0BD0132092AF1D10022F8E7C8110020FF
:1042F000FCFA00082DE9F04385B004460E4605F0AF
:1043000043FF4FF01E084FF000092D4D2D4F6880E0
:10431000E0B2864250D92C4900230EE01CF801EB94
:10432000BEF1FF0F01D086451CD001320F2AF5D116
:104330000133052B01F10F013CD08C460022EDE743
:10434000012B08D1012A06D16B88ADF804908DF8B5
:104350000630019819E06B88ADF800108DF8023036
:10436000009812E0396829B308FB031333F81210E0
:1043700033F8123049BADAB21B0AE1D1002AEAD185
:10438000ADF808208DF80A20029803F0D9FCC0F39C
:1043900007238DF80C00C0F307408DF80D308DF821
:1043A0000E009DF80E309DF80C209DF80D10204653
:1043B00004F0EEF90134ABE705B0BDE8F08300BFCF
:1043C0004C0D0020C8110020500D002041EA0203CE
:1043D000184310B405D101469622094810BCFCF7D9
:1043E00045B900240F230648013B13F0FF03017079
:1043F00042702044F8D11E34962CF3D110BC704783
:10440000CC11002010B5064A0B461478012C05D1BA
:1044100058780978FFF74EFF204610BD0020FCE7D2
:104420004C0D0020024B1878431E584258417047EB
:104430004C0D002096235843C1EB01110A44223051
:1044400000EB4200704704207047032838B510D8AD
:1044500004290ED80E2A0CD8FFF7ECFF054603F00E
:1044600093F80446681C03F08FF844EA002080B2F9
:1044700038BD0020FCE7032870B51C460FD804297E
:104480000DD80E2A0BD8FFF7D5FF0546E1B203F091
:10449000E3F8210A681CBDE8704003F0DDB870BD88
:1044A0002DE9F843002405460F461646A14600F1C3
:1044B0002208BC4208EB040001D1BDE8F8832B19A7
:1044C000B3F5167F04DA03F05FF830550134F0E7F6
:1044D00006F80490FAE72DE9F04105460E469046AD
:1044E000002400F12207B44207EB040001D1BDE82B
:1044F000F0812B19B3F5167F03DA18F8041003F0D6
:10450000ABF80134EFE70000032806D8962202FB3F
:1045100000F10248223103F085B87047CC11002029
:10452000032838B50CD8084A00231478012C07D189
:104530005578A84206D11370FFF7E6FF204638BD34
:104540000020FCE71846FAE74C0D0020032806D8A7
:10455000962202FB00F10248223103F0ABB870470B
:10456000CC110020074B084A10B51A600023074CF5
:104570002370607005F008FE60806078BDE8104030
:10458000FFF7E4BFC8110020CC1100204C0D002023
:10459000032808B50CD8074A5070FFF7D7FF05F07D
:1045A000A1FD2D2802D02D2005F099FD012000E06D
:1045B000002008BD4C0D0020032810B510D8094B71
:1045C000197869B9012458701C70FFF7BFFF05F016
:1045D00089FD2D2802D02D2005F081FD204600E028
:1045E000002010BD4C0D0020032810B5044609D84A
:1045F000FFF7ACFF2046FFF793FF2046BDE81040D1
:10460000FFF7C6BF10BD000008B5054802F01EF850
:10461000BDE808404FF416722221024803F002B8A8
:1046200090F800089C00010808B50B4B0A461B785F
:10463000012B0CD1A0F5A44020381F2809D9887877
:1046400020B150780978FFF735FE002008BD012021
:10465000FCE71846FAE700BF4C0D002070B5044691
:104660000078FF2801D105F03DFD0C4900220D46E0
:1046700011F8016BD3B2864203D00132102AF7D170
:1046800013462278FF2A13BFFF22013303F00F03E2
:104690002270E85CBDE8704005F021BD1AFB0008FF
:1046A00038B50B780546FF2B0C4602D105F01AFDF4
:1046B0002070284638BD38B540F27E2440F28E2561
:1046C00020460021013402F08AFFAC42F8D138BD07
:1046D00010B505F007FD0023054911F8014BDAB2CA
:1046E000844203D00133102BF7D11A46104610BD77
:1046F0001AFB000810B50446FFF7EAFF2146BDE8A3
:10470000104000F27E2002F06ABF08B5FFF7E0FF1C
:1047100000F27E2002F038FF072888BF002008BD85
:1047200070B505F0DFFC0723124A12F8011B814225
:104730001DD0013B13F0FF03F7D10725FFF7E5FF7D
:104740000130B0FBF5F405FB14040B4B13F81450C7
:1047500003EB44035E7805F017FD31460246284618
:1047600005F003FDE0B2BDE87040FFF7C3BF0625CA
:10477000E4E700BF2AFB00080CFB000838B5FFF790
:104780006DFFFFF7C2FF074B13F8104003EB400328
:104790005D7805F0F9FC294602462046BDE8384020
:1047A00005F0E3BC0CFB00082DE9FF41184B1B781A
:1047B000E3B10024DFF86080164F01AE0A254146C0
:1047C0002A463046FBF7DCFEFB7FE2B2B3FBF5F591
:1047D000954200D8B2B9312B305D0BD90023B422F9
:1047E0001946013403F0D4FF0A2CE7D1012004B0AC
:1047F000BDE8F0811D2B4FF000038CBFB4221A4698
:10480000B421EEE70023305D1A461946E9E700BF00
:1048100062120020640C002082F50008F8B52D4DCE
:1048200004462E78042E3BD8DFE806F0034C2E3FDA
:10483000470006F08FFE284DC0F34007288800F09F
:1048400092FE022808D0288800F08DFE06281EBFA0
:10485000224B1E78C6F30016288800F084FE02283A
:1048600010D0288800F07FFE821F53425341324609
:1048700039462046FDF788FBFF2232212046FDF70E
:10488000C7FB0DE00123F2E7FF231A461946FDF7A7
:104890007BFB0322C8212046FDF7BAFB01232B70C6
:1048A0002046BDE8F840FDF751BBFF231A461946E4
:1048B000FDF76AFB0122C821E0E700232B70FFF718
:1048C000ADFFEDE700262E70FFF7A8FF044B1E702A
:1048D000E6E700BF6312002076120020C4330020F8
:1048E0006C120020FF2810B504461BD10E4B5B6BE9
:1048F00023F07F43B3F5DC4F0DD100226E23114628
:10490000FDF742FB20460121FDF756FB2046BDE89E
:104910001040FDF71BBBB3F5DC0F03D100236E2263
:104920001946EDE710BD00BF640E002008B5054B29
:1049300000211870FB20FDF755FBBDE80840FB2067
:10494000FFF76CBF6312002010B5037C0446FB2BFD
:104950002ED1407C28B3FDF731FE08B1002010BDF8
:10496000184B1878184B18B14FF400619961F5E7AE
:10497000627E62B901229A61227E134B52B94FF4D2
:1049800080629A61A27E42B94FF4006207E04FF460
:104990008032F0E74FF08062F3E74FF000629A61F7
:1049A000DDE70122084B9A614FF480629A61EBE7E0
:1049B000064B1B78002BD1D1FFF734FD80F00100AE
:1049C000C0B2CCE769120020000400406B12002046
:1049D000034B187810F0030018BF0120704700BF88
:1049E000DC3300200022024B01201A70704700BF08
:1049F00069120020012070470120704710B5FDF7B3
:104A0000DDFD60B9074C206806F062FFB0F57A7FE3
:104A100005D906F017FF206053200AF01FFC012083
:104A200010BD00BF6412002008B56E23FF201A4697
:104A30001946FDF7A9FA0322FA21FF20FDF7E8FA4B
:104A4000FF20FDF783FA012008BD000008B547F6F6
:104A50001E63984210D179B10A4B1A680A4B134071
:104A6000B3F1807F0AD1094B1B78042B06D1FEF7E6
:104A700077FE08B9FEF76EFE012008BDFEF76DFE59
:104A8000FAE700BFB8330020FF0000012437002000
:104A900038B5084B04461B780D4623B16E221146EB
:104AA000104604F011FD29462046FFF77DFE012047
:104AB00038BD00BF6B1200204FF40062034B9A61B7
:104AC0004FF480629A6101229A61704700040040AD
:104AD00008B5FFF7F1FF0120014B187008BD00BFBA
:104AE0006912002008B5FFF7E7FF012008BD0000AC
:104AF000024B40F27A20196802F0CABDC033002090
:104B000070B5C74E044633780D463BB18B782BB158
:104B1000002211461046327004F0D6FC47F62903F5
:104B20009C4200F0378271D845F223239C4200F06A
:104B3000358334D845F202239C4200F074820BD8AE
:104B4000E72C00F0E981B4F5A44F00F04A82E32C91
:104B500000F0C5810124F9E045F206239C4200F0F3
:104B6000778245F221239C4200F0038345F204231F
:104B70009C42EFD1AB78002B00F0E7800122A94CDA
:104B8000A94B20881A7000F0EEFC022800F0F78094
:104B9000208800F0E8FC062840F0D780EFE047F6D8
:104BA00021039C4200F06F821FD845F227239C42CC
:104BB00000F0058347F213039C4200F0808145F228
:104BC00025239C42C6D1AB78002BC3D1FFF72AFC2A
:104BD0000028BFD0954B1A78002A00F0DD82002211
:104BE00029461A7045F22520D4E247F627039C4255
:104BF00000F0DD8100F2E38147F623039C42A9D156
:104C0000AB78002BA6D0FFF78BFD9EE047F607633D
:104C10009C4200F09E814BD847F601639C4200F015
:104C2000DF8019D8B4F5F84F00F09C81B4F5FC4F43
:104C300000F0B48047F62A039C428BD1AB78002B5E
:104C400088D005F02BFB282884D80220FFF76EFEC1
:104C5000282005F01BFB78E047F605639C4200F036
:104C60000D8100F2EB8047F602639C427FF472AF45
:104C7000FFF7D8FB0446002867D1AB78002B3FF440
:104C800069AF6B4B1B78032B7FF464AFFFF7CCF855
:104C900000287FF45FAF6E2321201A461946FDF7E6
:104CA00073F9022296212120FDF7B2F9212094E028
:104CB00047F64C639C4200F0338214D847F64A63AF
:104CC0009C4200F0F98100F2198247F61E639C4273
:104CD0007FF440AFAC78C4BBA82000F037FBA8201D
:104CE00000F04AFB32E047F654639C4200F04381F7
:104CF0001FD847F653639C427FF42CAFAB7823B3A5
:104D000005F0F0F92D2820D1FFF78CFB0446494B24
:104D1000587800F00F00002C40F02282FFF74CFC86
:104D2000204622462146FFF751FB0320FFF7FEFDF8
:104D30000CE047F655639C4200F0248147F6586327
:104D40009C427FF407AFAB7813B90024204670BDB6
:104D5000344C208800F007FC022812D0208800F094
:104D600002FC811F48424841334D2870208800F0E2
:104D7000FAFB2E4638B93378002B40F07D810420B1
:104D80007BE10120F0E7208800F0EDFB0228F2D063
:104D90002B78002B00F03E8102206EE1FFF742FBF2
:104DA00004460028D1D1AB78002B3FF4D3AE204B82
:104DB0001B78012B7FF4CEAEFFF736F800287FF486
:104DC000C9AE6E231F201A461946FDF7DDF80222F0
:104DD00096211F20FDF71CF91F20FDF7B7F8B5E756
:104DE000FFF720FB04460028AFD1AB78002B3FF43F
:104DF000B1AE0F4B1D78022D7FF4ACAEFFF714F867
:104E000000287FF4A7AE6E2320201A461946FDF72E
:104E1000BBF82A4696212020FDF7FAF82020DCE78F
:104E20006B120020761200206C1200206A12002003
:104E3000B8330020C033002068120020FFF7F2FAD8
:104E40000446002881D1AB78002B3FF483AEBD4BE4
:104E50001B78002B7FF47EAEFEF7E6FF00287FF480
:104E600079AE6E2323201A461946FDF78DF80222EB
:104E700096212320FDF7CCF82320AEE7FFF7D2FAE6
:104E8000044600287FF461AFAB78002B3FF462AE9C
:104E9000AC4B1B78062B7FF45DAEFEF7C5FF0028F8
:104EA0007FF458AE6E2328201A461946FDF76CF899
:104EB000022296212820FDF7ABF828208DE7AC7858
:104EC000002C3FF447AE00236E211A46FF20FDF769
:104ED0005BF80121FF20FDF76FF8FF207DE79A4C7A
:104EE000208800F040FB02280FD1984B1B78DA068F
:104EF0007FF530AEFFF796FA00287FF42BAEE32063
:104F0000AC781CB300F022FA20E7208800F02BFBDD
:104F100006287FF41FAEE8E78B4C208800F023FBC7
:104F200002280CD1894B1B78DB067FF513AEFFF707
:104F300079FA00287FF40EAEAC78E720E1E720880C
:104F400000F011FB06287FF405AEEBE700F014FA41
:104F500000E67C4B1B7803B1AB787D4A03F001037C
:104F60001370F2E6AC78002C3FF4F4AD01F096FE3D
:104F700006F0C6FCEAE6AB78002B3FF4E6AE012370
:104F80003370E2E6AB78002B3FF4DFAE62200AF02C
:104F900065F9DAE6AB78002B3FF4DCAD05F07EF97D
:104FA000C7287FF6D7AD0220FFF7C0FCD2E5AB786B
:104FB000002B3FF4CFAD05F0E7F88F28F1E7AC7890
:104FC000002C3FF4C7AD05F0DFF824283FF6C2AD52
:104FD0000220FFF7ABFC00221146104604F074FAE1
:104FE000B4E6AB78002B3FF4B0AE0122564C594BDF
:104FF00020881A7000F0B7FA02280DD1208800F03E
:10500000B2FA00283FF4C8AE208800F0ACFA0228BB
:105010007FF49BAE002030E0208800F0A4FA062840
:105020007FF493AEEAE7AB78002B3FF48EAE01221B
:10503000454C484B20881A7000F095FA02283FF43E
:1050400084AE208800F08FFA06283FF47EAED5E7C4
:10505000AB78002B3FF479AE01223B4C3D4B2088CE
:105060001A7000F080FA02283FF46FAE208800F03A
:105070007AFA06283FF469AE062000F0D7F900203E
:1050800000F0C9FD61E6AB789BB1334C0020FFF71F
:105090004DFC607800F00F00FFF758FA607800F0E0
:1050A0000F00FFF73DFA00222C4BA01C1A70FFF7EF
:1050B00065FBFFF71DFD48E6AB78002B3FF445AEDE
:1050C000254C607800F00F00FFF740FA607800F0A0
:1050D0000F00FFF725FA0020A11CFFF7E1FA637823
:1050E00060F303036370FFF703FD607800F00F00C7
:1050F000FFF74EFA0020FFF719FC26E6AB78002BED
:105100003FF423AE144C607800F00F00FFF71EFA56
:10511000607800F00F00FFF703FAA11C0120DCE724
:10512000AB78002B3FF411AE0B4C607800F00F0011
:10513000FFF70CFA607800F00F00FFF7F1F9A11CFF
:105140000220CAE7B833002076120020C4330020C2
:10515000621200206C120020C03300206A1200206E
:10516000FFF7DEF90020FFF7E1FB00241D4B1C7068
:10517000ECE5AB78002B7FF4EDACFFF753F900289A
:105180003FF4E8AC174B1A7832B10022294645F2B9
:1051900021201A70FFF736F90124E7E7AE78002ED8
:1051A0007FF4D8ACFFF73EF900283FF4D3AC0D4BA9
:1051B0001A78002AF0D01E7029462046EAE7AB781C
:1051C000002B7FF4C7ACFFF72DF900283FF4C2ACE9
:1051D000044B1A78002ADFD0002229461A7045F2C3
:1051E0002720D7E76A12002008B50020FFF79EFBB2
:1051F0000022094B1A70094A138823F4706323F0C4
:10520000010343F001031380FF239370FFF753FA68
:10521000BDE80840FFF76CBC6A120020C0330020D4
:1052200010B5184C012220464FF4806108F033FC81
:105230004FF480630122A3611146204608F02BFC45
:1052400001222046A2614FF4006108F024FC4FF4D3
:10525000006340F27A20A36102F0B4F90A4C2060A6
:1052600008B9FFF7C1FF607800F00F00FFF77AF987
:10527000FF22C821FB20FCF7CBFEFB20FCF766FEDB
:10528000012010BD00040040C033002009207047F9
:1052900008280DD804290BD80E2A09D84B23C1EBB6
:1052A000011103FB0010034B104433F8100070474A
:1052B0000120704756FB000809207047082808D8CD
:1052C00039B9054B82F0010202EB400233F81200BB
:1052D00070470120704700BF32FB0008A0F58073C3
:1052E000B3F5F85F10B526D210F4805F00F40074B7
:1052F00000F4807300F4806100F400620DD0002B94
:105300000CBF002010200CB140F0200009B140F08B
:1053100040000AB140F0800010BD181C18BF0120E9
:105320000CB140F0020009B140F00400002AF3D0B3
:1053300040F00800F0E70020EEE710B50C46FFF75C
:10534000CDFF2346BDE8104018470000A0F1E00360
:10535000072B10B5044600D940B920460449FFF791
:10536000ECFFE0B2BDE81040FDF750BB0149F6E7A5
:105370006D2B00081D2C000810B50446C0B2FDF7C7
:10538000A7FBA4F1E003072B00D92CB90349204661
:10539000BDE81040FFF7D1BF0149F8E7C52B000871
:1053A000752C000801207047704708B5FFF7FCFF17
:1053B00008BD000013B502AB03E903000F4B1B78D7
:1053C000B3B99DF80230009873B16AB100F0D4FC13
:1053D00004460146009800F08FFC2046009902B078
:1053E000BDE8104001F048BB00F0A6FC0446F4E71D
:1053F000009800F0C1FC0099F1E700BF7512002091
:10540000034610B400885C880A4640EA0440998844
:1054100010BCFFF7CFBF0120704710B50446002134
:10542000FFF7EEFF2146FFF7C0FF10BD10B50124C6
:105430008440E0B201F0EDF8A0B2BDE8104000F009
:10544000BEBB704708B500F055FBFFF7FAFFBDE89B
:10545000084046F2A81007F06CB908B5FFF7F2FF54
:10546000BDE8084006F04CBA08B5FFF7EBFFBDE811
:10547000084006F06DBA38B501210546FFF7C0FFB8
:105480002946044605F0A4F808B9002038BD29468D
:105490002046FEF715FB0028F7D02946204605F0E8
:1054A0009BFE0028F1D02946204605F027FA002867
:1054B000EBD02946204605F00DFE0028E5D0294610
:1054C000204604F033FF0028DFD02946204605F0AF
:1054D000D1FE0028D9D0AB785BB147F603439C429C
:1054E0001DD00AD8B4F5F84F16D047F601439C42B8
:1054F00017D02846FFF756FFC8E747F65B439C42A4
:1055000015D047F65C439C420ED047F65A439C4266
:10551000EFD101F059F8ECE7FFF79FFFB5E701F095
:105520005AF8FFF7A1FFB0E701F042F8E1E701F018
:105530004EF8DEE708B500F046F8002004F04AFD1A
:10554000BDE80840FEF7ACBA03091CBF18460423A7
:1055500082081EBF10460233DBB242081CBF013373
:10556000DBB218467047030A002B16BF184600230B
:105570000823020918BF1046C0F38F0218BF043376
:1055800012B110460233DBB2C0F34F0008B1013351
:10559000DBB218467047704701207047704738B536
:1055A0000546FFF7F9FF044610B12846FFF7F6FF5E
:1055B000204638BD704710B50446FFF7ECFF204683
:1055C000FFF7EDFF10BD08B505F0BCFFFFF7F3FFD7
:1055D00008BD000010B505F0B5FF074B04461A786A
:1055E000824207D0187006F02DF9044B186020464F
:1055F000FFF7E1FF10BD00BF741200207012002001
:1056000010B586B06C4684E803009DF802300BB1FB
:1056100000F010FF0023ADF8163094E80300ADF859
:10562000141089B20490ADF80C0004AC29B994E8C8
:10563000030000F037FE06B010BD4FF6FF73BDF853
:105640000C209A42F3D02046FFF7E5FE0028EED169
:10565000F1E7008800F0B2BB704738B505460C464C
:10566000FDF7D4F91CB92846FDF732FA38BD64209D
:10567000013C07F05EF8A4B2F4E708B539280CBF86
:1056800050210A21FFF7E9FF08BD00002DE9F0478E
:10569000877981460D46847800F096FE3F09804662
:1056A00000B3A046F4B1C5F3072303F0F002402A8B
:1056B00009D005F12002D2B2072A25D91FB903F07B
:1056C000E003202B23D0AF4B93F8018018F004089F
:1056D00008D0022000F038FF00F076FE80F00100D4
:1056E0005FFA80F8C5F303330B2B41D8DFE813F0E2
:1056F0001100110062006200CE0040004000400036
:10570000E4004001530153014FF00008EAE7B846B6
:10571000E8E7C5F30723C5F3032613F0F00F18BF1E
:105720003601EFB294B156B107F12003DBB2072B7B
:10573000304600D93FB900F057FE00F0ABFE3846C6
:10574000FDF764F914E000F065FEF6E73846FDF772
:10575000BFF96EB107F12003DBB2072B304600D949
:1057600017B900F049FE01E000F05CFE00F092FE87
:10577000C5F30335083D032D03D805F0E3FEFFF71D
:105780001AFFB8F1000F00F05E8100F015FE10F076
:10579000010040F0588189F8020000F005FE00F099
:1057A00041FA484600F066F900F0FEFDBDE8F0471A
:1057B00000F044BAC5F3072303F0F003C5F3032652
:1057C000202B5FFA85FA18BF3601BAF1000F0FD00F
:1057D000BAF1010F41D0002C49D0002F40D099F8E8
:1057E0000630D90741D56FF3071389F8063037E043
:1057F000644B5B7858070FD43CB126B1304600F0BB
:10580000F3FD00F047FE00209AE72046FDF760F91F
:10581000002EADD03046A4E784B137B900F010FEB9
:105820003043C0B2FDF7A2F9A2E7012FF6D100F094
:1058300007FE3043C0B200F00FFE99E72FB900F029
:105840001DFE3046FDF7BEF992E7012F90D030469D
:10585000FDF7B8F900F012FE8AE71CB1052F87D8D2
:105860003046DFE7042F83D8EBE7504668E7002F88
:10587000E7D0BAF1390F0CBF4FF4FA504FF47A70F9
:1058800006F057FF5046FDF723F971E7C5F3812372
:1058900043B1012B7FF46CAF64B1C5F3090005F08F
:1058A00091FE65E724B1C5F3090005F06FFE5FE7DF
:1058B0002046FAE72046F2E715F4407F28D1002C75
:1058C0007FF456AFEA0648BF0F24C5F342134FEAF0
:1058D000830344BF9C40E44305F00F0000FA03F04B
:1058E000C5F3812348BFA4B280B2022B40EA040072
:1058F00008D00AD8012B02D000F06CF938E700F08C
:1059000061F935E700F06EF932E700F058F92FE75A
:10591000C5F30122D3B204B302F00103002B3FF41C
:1059200027AFC5F34210820015F010001EBF0F20F4
:105930009040C04305F00F0303FA02F3C5F3812240
:1059400018BF80B29BB2022A40EA03000AD00CD8EA
:10595000012A04D000F092F90AE75B08DEE700F0C4
:1059600085F905E700F092F902E700F049F9FFE652
:10597000EFB2C5F303263CB1304600F053F9384688
:1059800050E700BFC43300203846FDF71BF930460E
:1059900000F054F9ECE6EEB2A6F1F003042B3DD88A
:1059A000DFE803F003220E151E003CB1042F3FF682
:1059B000DFAEC5F3042000F04DF9D9E6052FF6E778
:1059C000C5F30420002CE3D100F02CF9D0E624B17B
:1059D000C5F3042000F01FF9CAE600F019F9C7E684
:1059E0001A4B5B785B0704D4C5F30420002CCFD09E
:1059F000EAE74CB1C5F30424204600F013F9032173
:105A0000204600F07DFDB3E6012000F09DFD012F52
:105A10007FF6AEAE022000F097FDA9E62CB10FB1E3
:105A200030468DE6C5F30420CEE74FB1392E0CBFCA
:105A30004FF4FA504FF47A7006F07BFE304622E7BE
:105A4000C5F30420A4E7BDE8F08700BFC4330020FD
:105A500038B501880446807800F0BCF9054600F0AE
:105A60001DF900F0ABF829462046BDE83840FFF7A5
:105A70000DBE000037B5858804460146022201A804
:105A8000FAF77EFDF5B14FF6FF73BDF804209A4298
:105A900018D02046FFF7EFFC70B900F095FC88B1F4
:105AA000A3787BB1084B5B785B070BD5022003B072
:105AB000BDE8304000F048BD2046FFF7C9FF204652
:105AC000FFF7ABFC03B030BDC433002008B50020A5
:105AD00005F05CFD002005F075FD00F0ABFCBDE8B5
